:0400000002001132B7
:03000B00020529C2
:0E006A00E4F508F509F50AF50BF50C02000E99
:03000E000203905A
:20007800AE82AF8374012EF50DE43FF50EE50D450E70FA227E1E7F008E048F051EBEFF014D
:200098001FEC4D70F32212008C75A02F12008C75A06F12008CE5A0540FC454F0FF75A02F96
:2000B800C00712008C75A02F12008C75A06F12008CD007E5A02F540FF58275A02F22AF82C3
:2000D800C00712008CD007EFC4540FFE53060F8EA0C007C00612008CD00674404EF5A0C0CA
:2000F8000612008CD0068EA012008CD00753070F8FA0C00712008CD00774404FF5A0C00798
:2001180012008CD0078FA012009EE58220E7F822AF82C00712008CD007EFC4540FFE530611
:200138000F74104EFD8DA0C007C006C00512008CD005D00674504EF5A0C00512008CD00522
:200158008DA012008CD00753070F74104FFE8EA0C007C00612008CD006D00774504FF5A0FD
:20017800C00612008CD0068EA012009EE58220E7F82275A00090003212007875A0039000BE
:200198000112007875A04390000112007875A00390000512007875A003900001120078756A
:2001B800A04390000112007875A00390000512007875A00390000112007875A043900001D6
:2001D80012007875A00390000512007875A00290000112007875A04290000112007875A08D
:2001F800029000051200787582281200D67582081200D67582011200D67582061200D6759E
:20021800820C1200D6750F0022AE82AF83BE0A20BF001DE50F60287428B50F02802175820E
:2002380020120128050F7450B50FE8750F0080E38E82120128050F7450B50F03750F0090E2
:20025800000022758921758850758780758AE6758CBE75A88222AE82AF83C296C295D2959F
:20027800C2947D00EE5401B401009200E43324FF9293EFC313CE13CEFFD294C2940DBD0AA7
:200298000040E1D296C297227580FFC28412008C208006758231020347208106758232027E
:2002B80003472082067582330203472083067582410203477580FFC28512008C208005759E
:2002D8008234806B2081057582358063208205758236805B20830575824280537580FFC297
:2002F8008612008C2080057582378043208105758238803B208205758239803320830575F5
:200318008243802B7580FFC28712008C20800575822A801B2081057582308013208205759D
:200338008223800B20830575824480037582FF22AE82AF837C017D007A017B00C3EA951053
:20035800EB64808511F063F08095F050268E178F188C828D83C007C006C003C0021206309E
:20037800AC82AD83D002D003D006D0070ABA00CC0B80C98C828D832212025B12018A74B35E
:20039800C0E0740DC0E07480C0E012067515811581158174BDC0E0740DC0E07480C0E01209
:2003B80006751581158115817514007512037513007E007F007510028F11900002C007C010
:2003D80006120348E5828583F024FFF582E5F034FFF58312026ED006D007C007C006120259
:2003F800A0AD82D006D007BD433FE514703BD2B67E007F00C007C00674B3C0E0740DC0E08C
:200418007480C0E012067515811581158174C8C0E0740DC0E07480C0E01206751581158197
:200438001581D006D007751401C007C0061202A0AD82D006D007BD370280030205187401AD
:20045800B514028003020518D2B67E007F00C3E512940BE51364809480503C85121085137E
:2004780011900002C007C006120348E5828583F024FFFCE5F034FFFDC004C00574D5C0E0E2
:20049800740DC0E07480C0E0120675E58124FBF581D006D0078049E51224F7F510E513344E
:2004B800FFF511900002C007C006120348E5828583F024FFFCE5F034FFFD74FFC39CFC74DE
:2004D800039DFDC004C00574D5C0E0740DC0E07480C0E0120675E58124FBF581D006D0070B
:2004F800C007C00674BDC0E0740DC0E07480C0E0120675158115811581D006D0077514004C
:20051800BE0505BF0002C2B60EBE00010F0203F222C021C0E0C0F0C082C083C007C006C0CA
:2005380005C004C003C002C001C000C0D075D000758AE6758CBE7401250DFEE4350EFF8E02
:200558000D8F0EC3EE942CEF940150030205FB7401B5140280030205F4E4F50DF50EC3E540
:2005780012940BE513648094805020851210851311900002120348E5828583F024FFF5821A
:20059800E5F034FFF58312026E802DE51224F6F510E51334FFF511900002120348E5828572
:2005B80083F024FFFEE5F034FFFF74FFC39EF58274039FF58312026EC3E5129414E513646F
:2005D8008094804008751202751300802EAE12AF1374012EF512E43FF513801FE4F50DF597
:2005F8000E80187496B50D06E4B50E028002800B7401B5140690000012026ED0D0D000D01F
:1806180001D002D003D004D005D006D007D083D082D0F0D0E0D0213296
:200DB30037202D2053746F700A0043202D2053746172740A00526F7461636520766C6E79BD
:120DD3000A004B6F6D62696E61636520307825780A000C
:06004000E478FFF6D8FD94
:20001E007900E94400601B7A00900DF0780175A000E493F2A308B8000205A0D9F4DAF2758B
:02003E00A0FF21
:1D063000E5828517F0A4C582C0F08518F0A4D0F025F0C5838517F0A42583F583225F
:200046007800E84400600A790175A000E4F309D8FC7800E84400600C7900900001E4F0A3B8
:04006600D8FCD9FAEF
:20064D00C0168581167E008E83120221D0162285823285833385F034E4F52FF530F53185DA
:20066D00153590064D020736C016E581F51624FBFF8F35E4F52FF530F531E51624FBF886ED
:10068D003208863308863490064D120736D016226E
:20069D00AF82C025C026C0271206AA8007C023C0248F8222158115811581052DE4B52D025B
:2006BD00052E22AF8274302FFF24C6500B74072FFFE52260034307208F8202069DE582FFE7
:2006DD00C4540FF582C0071206C0D007740F5FF5820206C0858217AB28AC29AD2AAE2BAAA8
:2006FD002C7519208A07EF2FF518EE2354014518FAEB2BFBEC33FCED33FDEE33FEC3EA95E0
:20071D00174008EAC39517FA430301D519D68B288C298D2A8E2B8A2C228582238583248574
:20073D002F25853026853127E4F52DF52EAD32AE33AF348D828E838FF0120D93FC74012DD5
:20075D00F532E43EF5338F34ECFF7003020D74BF25028003020D6CE4F536F537F538F539ED
:20077D00F53AF53BF53CF53DF53FF54CF54D7540FF7541FF85324685334785344885468230
:20079D008547838548F0120D93F549A38582468583478546328547338548347425B5490865
:2007BD0085498212069D808574D025495068E54924C6406274FFB54036B54133854C1785BA
:2007DD004D1890000A12063085824A85834BAA497E00EA254AFAEE354BFEEA24D0F54CEED4
:2007FD0034FFF54DE54C454D7093753701808E85401785411890000A120630AE82AB83AA42
:20081D00497D00EA2EFEED3BFBEE24D0F540EB34FFF54102079A742EB5491574FFB540058C
:20083D00B54102800302079AE4F540F54102079A749F2549500EE549248540085349DF759D
:20085D00220180037522007420B54903020900742BB549030208FA742DB5490280797442AA
:20087D00B549030209067443B549030209127444B54903020A967446B54903020AAD7448E9
:20089D00B5490302079A7449B54903020A96744AB5490302079A744CB549028052744FB5CB
:2008BD004903020A9E7450B54903020A2B7453B5490280627454B5490302079A7455B5494D
:2008DD0003020AA37458B54903020AA8745AB5490302079A020AB275360102079A7538019B
:2008FD0002079A75390102079A753B0102079A753C0102079AE53B600AE53514F989358747
:20091D0006800BE53524FEFB8B358B0187068E8212069D020AC0E53524FDFE8E358E018776
:20093D000209870309870619198A288B298E2A8A828B838EF0120D7B85824685834774FFDE
:20095D00B54009B54106854640854741E5367037C3E546954CE547954D502CE54CC395467E
:20097D00F54AE54D9547F54BAA4AAE4B154A74FFB54A02154BEA4E600875822012069D80C1
:20099D00E7854A4C854B4DAB40AE41852882852983852AF0120D93FA8A446034C3E49B747E
:2009BD00808EF063F08095F050261BBBFF011E854482C006C00312069DD003D006AA28ACAA
:2009DD0029AD2A0ABA00010C8A288C298D2A80BBE5367003020AC0C3E546954CE547954D99
:2009FD004003020AC0E54CC39546F54AE54D9547F54BAA4AAE4B154A74FFB54A02154BEA65
:200A1D004E7003020ABA75822012069D80E4E53524FDFE8E358E01870209870309870619AC
:200A3D00198A288B298E2AAE2ABE800040047B438014BE600040047B50800BBE40004004BC
:200A5D007B4980027B588B82C00312069D75823A12069D75823012069D75827812069DD025
:200A7D0003BB4902800BBB500280068529821206DA8528821206DA802A753A01753F0A8057
:200A9D0022753F08801D753F0A8018753F108013753D01800E85498212069D8006854A4C2A
:200ABD00854B4DE53D6060E53524FCFE8E358E01874C09874D09874E09874F191919854C07
:200ADD0028854D29854E2A854F2B7528E575290D752A8085284C85294D852A4E7401254CB7
:200AFD00FAE4354DFBAE4E8A288B298E2A854C82854D83854EF0120D93FEFB700302074A88
:200B1D008B8212069D80CCE53F700302074AE53B602BE53514F9893587068E027B007D001B
:200B3D007E008A288B298D2A8E2BE53A7064AA28FBFDFE8A288B298D2A8E2B8055E53C605D
:200B5D0021E53524FCFE8E358E0187020987030987050987061919198A288B298D2A8E2B65
:200B7D008030E53524FEFE8E358E01870309870619EEFA3395E0FDFE8B288A298D2A8E2B82
:200B9D00E53A700EAA28AB29FDFE8A288B298D2A8E2BE53A6023E52B30E71BC3E49528FBE1
:200BBD00E49529FCE4952AFDE4952BFE8B288C298D2A8E2B8003753A00753E01791F7D0065
:200BDD007E00752C00853F82C006C005C0011206F1D001D005D006E53E700BE52CC4FCE76C
:200BFD00FB4CF7198002A72C0DBD00010EE53EB40100E433F53EE5284529452A452B70C2A5
:200C1D0089458D428E43E54C454D7005754C01F54DE537702DE5367029AA4CAB4DAC420CB8
:200C3D007E00C3EC9AEE9B5015758220C003C00212069DD002D0031ABAFF011B80DF8A4CC8
:200C5D008B4DE53A601175822D12069D154C74FFB54C02154D802EE54245436028E538609B
:200C7D001175822B12069D154C74FFB54C02154D8013E539600F75822012069D154C74FF76
:200C9D00B54C02154DE5367033AD4CAE4D8D038E041DBDFF011EC3E5429BE5439C503EE54A
:200CBD003760067B307C0080047B207C008B82C006C00512069DD005D00680D1C3E54295F0
:200CDD004CE543954D500FE54CC39542F54CE54D9543F54D800BE4F54CF54D80048D4C8E0D
:200CFD004DA945AD42AE438D028E041DBDFF011EEA4C6030E53EB40100E433F53E700A0938
:200D1D00E7C4540FFC8C2C80078704740F5CF52C852C82C006C005C0011206C0D001D005E5
:200D3D00D00680C3E536700302074AAD4CAE4D8D038E041DBDFF011EEB4C700302074A751C
:1E0D5D008220C006C00512069DD005D00680E08F8212069D02074A852D82852E8322E6
:0B0DE5003C4E4F20464C4F41543E0056
:180D7B00AA82AB83120D936003A380F8C3E5829AF582E5839BF58322FE
:0D00110075814F120DAFE582600302000EF5
:1C0D930020F71430F6148883A88220F507E6A88375830022E280F7E49322E0226F
:040DAF007582002227
:00000001FF
